:020000040000FA
:1000000028020010E1000000E9000000EB00000001
:10001000ED000000EF000000F10000000000000013
:10002000000000000000000000000000F3000000DD
:10003000F500000000000000F7000000F9000000DB
:10004000FB000000FB000000FB000000FB000000C4
:10005000FB000000FB000000FB000000FB000000B4
:10006000FB000000FB000000FB000000FB000000A4
:10007000FB000000FB000000FB000000FB00000094
:10008000FB000000FB000000FB000000FB00000084
:10009000FB000000FB000000FB000000FB00000074
:1000A000FB000000FB000000FB000000FB00000064
:1000B000FB000000FB000000FB000000FB00000054
:1000C000FB000000FB000000FB000000DFF80CD08C
:1000D00000F07AF8004800470501000028020010EF
:1000E0000648804706480047FEE7FEE7FEE7FEE7D2
:1000F000FEE7FEE7FEE7FEE7FEE7FEE7A9040000F5
:10010000CD00000000F0D0F900F080F8044800684D
:10011000044908600248006800F04CFB00BFFEE79D
:1001200000000010040000102DE9F05F05460020DB
:1001300092469B4688460646814640241BE0284658
:1001400041464746224600F02FF853465A46C01A09
:10015000914110D311461846224600F016F82D1A88
:1001600067EB01084F4622460120002100F00DF800
:1001700017EB00094E41201EA4F10104DFDC4846C4
:1001800031462A464346BDE8F09F202A04DB203A48
:1001900000FA02F1002070479140C2F1200320FADA
:1001A00003F3194390407047202A04DB203A21FAD8
:1001B00002F00021704721FA02F3D040C2F1200280
:1001C0009140084319467047064C074D06E0E06829
:1001D00040F0010394E8070098471034AC42F6D38E
:1001E000FFF778FF240200004402000002E008C884
:1001F000121F08C1002AFAD170477047002001E0A1
:1002000001C1121F002AFBD1704700004FF00A0104
:100210004FF000020A440139FCD1014802607047E6
:10022000000000106408000000000010240000001E
:10023000EC01000088080000240000100402000007
:10024000FC010000000000000000000000000000B1
:10025000000000000000000000000000000000009E
:10026000000000000000000000000000000000008E
:10027000000000000000000000000000000000007E
:10028000000000000000000000000000000000006E
:10029000000000000000000000000000000000005E
:1002A000000000000000000000000000000000004E
:1002B000000000000000000000000000000000003E
:1002C000000000000000000000000000000000002E
:1002D000000000000000000000000000000000001E
:1002E000000000000000000000000000000000000E
:1002F000000000000000000000000000FFFFFFFF02
:100300002DE9F04781480068C0F3016003287CD1E3
:100310007F48006810F0030006D0012833D002287F
:100320005FD003282ED100E000BF78480068C0F3FA
:10033000074000F101044FF002017648D0F8880030
:10034000C0F30E0000F10100A1FB0001724B4FF061
:10035000000CA0FB037901FB039100FB0C1122466A
:1003600063463846FFF7E0FE05466C480068C0B2B9
:1003700000F1010422464FF000032846FFF7D4FEA7
:10038000674908605DE061480068C0F3074000F11C
:1003900001044FF002015F48D0F88800C0F30E005E
:1003A00000F10100A1FB00105E4A4FF0000CA1FB20
:1003B000027900FB029001FB0C012246634638469D
:1003C000FFF7B2FE054655480068C0B200F10104CF
:1003D00022464FF000032846FFF7A6FE504908606A
:1003E0002FE04A480068C0F3074000F101044FF0D5
:1003F00002014848D0F88800C0F30E0000F1010067
:10040000A1FB00124FF4004000E01BE04FF000039E
:10041000A1FB007902FB009001FB03012246384654
:10042000FFF782FE05463D480068C0B200F10104B6
:1004300022464FF000032846FFF776FE3849086051
:1004400000BF2FE03248006810F0030006D00128FA
:1004500010D0022819D0032823D100E000BF2F4874
:100460000068C0B200F101002B49B1FBF0F02C494B
:10047000086016E029480068C0B200F1010029496F
:10048000B1FBF0F0264908600BE024480068C0B2D8
:1004900000F101004FF40041B1FBF0F02049086089
:1004A00000BF00BFBDE8F08720201F490860194841
:1004B000D0F8A00110F0200F05D000BF1A48006846
:1004C00010F0400FFAD00320144908601748114972
:1004D000C1F8A8011648174908604FF001000C49FF
:1004E00008604FF00400A1F10401086012481349AC
:1004F00008604FF480700749C1F8C80108460068D9
:1005000020F4704040F480400860704788C00F407D
:100510000CC10F4000C00F4000093D0004C10F4056
:1005200008000010001BB700A0C10F4055515155E5
:1005300055545554ACC10F40DE872804C4C00F4049
:100540000146302905DB392903DCA1F13002D0B2A4
:1005500002E0A1F13702D0B270470146092903DC5D
:1005600001F13002D0B202E001F13702D0B270479F
:1005700030B5014601220020002309E00A24B1FB26
:10058000F4F504FB1513B1FBF4F103FB02001201B7
:100590000029F3D130BD10B501460122002000230F
:1005A00007E001F00F03090903FB020002EB8204DC
:1005B00062000029F5D110BD002100E0491C8142F4
:1005C000FCD370474FF47070A049C8651020C8650F
:1005D0002020C865704700B5FFF7F4FF9C4800680D
:1005E0009A4948651020C865202088651920FFF7C2
:1005F000E3FF20209549C86500BD00B59548007807
:1006000000F0F00092490860084600688000086029
:10061000FFF7E1FF8F48007800F00F008C49086079
:100620000846006880010860FFF7D5FF4FF47A7034
:10063000FFF7C2FF00BD00B5874800698749084041
:10064000854908618148006C40F470707F490864F6
:100650000846006C40F0100008640846006C40F04A
:1006600020000864FFF7AEFF4FF44860FFF7A4FFD7
:10067000C02077490860FFF7AEFF47F23050FFF720
:100680009BFFC02072490860FFF7A5FF47F230507A
:10069000FFF792FFC0206E490860FFF79CFF47F20A
:1006A0003050FFF789FF802069490860FFF793FF0A
:1006B00047F23050FFF780FF282066490860FFF7B7
:1006C0009CFF47F23050FFF777FF0C20614908602C
:1006D000FFF793FF4FF44870FFF76EFF06205D4968
:1006E0000860FFF78AFF4FF44870FFF765FF0120AD
:1006F00058490860FFF781FF42F21070FFF75CFF76
:10070000802054490860FFF778FF4FF44870FFF7E6
:1007100053FF00BD00B5FFF755FF4D4800684B493A
:10072000486510208865202088651920FFF744FF60
:1007300020204649C86500BD00B54648007800F055
:10074000F000434908600846006880000860FFF731
:10075000E1FF4048007800F00F003D49086008467E
:10076000006880010860FFF7D5FF4FF47A70FFF74B
:1007700023FF00BD00B5012036490860FFF73DFFAB
:1007800042F21070FFF718FF00BD10B504460023B9
:100790000CE0E05C2F490860FFF7CEFF5B1C102BDC
:1007A00004D1C0202B490860FFF727FFE05C002838
:1007B000EFD110BD38B50446FFF73DFF8020254935
:1007C0000860FFF71AFF4FF44870FFF7F5FE244862
:1007D000FFF7DBFFE0B200909DF80000FFF7C8FED6
:1007E000C0B200909DF800509DF8000000F0F000AD
:1007F00000909DF80000001100909DF80000FFF7A8
:10080000ACFE00908C2013490860FFF7F6FE4FF411
:100810004870FFF7D1FE6846FFF7B7FF00959DF8D7
:10082000000000F00F0000909DF80000FFF795FE1B
:1008300000908D2007490860FFF7DFFE4FF44870F5
:10084000FFF7BAFE6846FFF7A0FF38BD00C00920D9
:10085000100000100C00001000C00240FF00F0FF6C
:10086000140000100000000000000000C0C62D00B1
:10087000000000000000000053756D203120746FEF
:080880002031303A00000000B5
:04000005000000E116
:00000001FF
