:020000040000FA
:1000000010020010E1000000E9000000EB00000019
:10001000ED000000EF000000F10000000000000013
:10002000000000000000000000000000F3000000DD
:10003000F500000000000000F7000000F9000000DB
:10004000FB000000FB000000FB000000FB000000C4
:10005000FB000000FB000000FB000000FB000000B4
:10006000FB000000FB000000FB000000FB000000A4
:10007000FB000000FB000000FB000000FB00000094
:10008000FB000000FB000000FB000000FB00000084
:10009000FB000000FB000000FB000000FB00000074
:1000A000FB000000FB000000FB000000FB00000064
:1000B000FB000000FB000000FB000000FB00000054
:1000C000FB000000FB000000FB000000DFF80CD08C
:1000D00000F0F6FD00480047050100001002001086
:1000E0000648804706480047FEE7FEE7FEE7FEE7D2
:1000F000FEE7FEE7FEE7FEE7FEE7FEE7B9060000E3
:10010000CD0000008CB055A00068079054A207CA2B
:1001100004AB07C355A207CA01AB07C300F0CCFA72
:1001200000F0F6F95448006840F400405349C1F823
:10013000C40000F024F95248C06840F040405049E3
:10014000C8604E48D0F8C40040F480504B49C1F814
:10015000C40000F0DDF980204A49086000F0F1F8A1
:100160004FF4487000F0CCF804A800F0B2F9C020B9
:100170004449086000F0E5F84FF4487000F0C0F81A
:1001800001A800F0A6F967E03F4840490860002454
:1001900000E0641CB4F5FA6FFBD300BF3B48406835
:1001A0000546B0F1004FF9D0384845682D09C5F330
:1001B0000B05284600F078F80746354900F0F9FAB3
:1001C0000646344900F02BFB8046404600F071F8AB
:1001D000064632460B4630A10AA800F0F5FD2A4635
:1001E0002FA108A800F0F0FD002400E0641CB4F585
:1001F000FA6FFBD38A202349086000F0A2F84FF47D
:10020000487000F07DF80AA800F063F9CB201D4982
:10021000086000F096F807A800F05BF9CB201949B8
:10022000086000F08EF84FF4487000F069F808A8F4
:1002300000F04FF9002400E0641C1A488442FBD30C
:10024000002405E0002008A908550AA90855641CE7
:10025000072CF7D30025A84696E7000020202000B1
:10026000414E414C4F472049503A00004144432001
:100270004F55545055543A00C4C00F4000C00F4071
:1002800000C0024000000010200020010040034098
:100290003333534000F07F4525332E32665600003D
:1002A00025780000400D030096230022114600F03F
:1002B00025BB00F0004230F000400AD0C10D01F52E
:1002C0006071C0F3160042EA0151C20840071143B1
:1002D0007047002001467047202A04DB203A00FACC
:1002E00002F1002070479140C2F1200320FA03F38D
:1002F000194390407047704700000000FFFFFFFF68
:10030000002100E0491C8142FCD370474FF470701B
:100310007A49C8651020C8652020C865704700B5B7
:10032000FFF7F4FF76480068744948651020C865F7
:10033000202088651920FFF7E3FF20206F49C8655A
:1003400000BD00B56F48007800F0F0006C4908600F
:100350000846006880000860FFF7E1FF6948007800
:1003600000F00F00664908600846006880010860D8
:10037000FFF7D5FF4FF47A70FFF7C2FF00BD00B55D
:1003800061480069614908405F4908615B48006C49
:1003900040F47070594908640846006C40F0100041
:1003A00008640846006C40F020000864FFF7AEFFC8
:1003B0004FF44860FFF7A4FFC02051490860FFF7E1
:1003C000AEFF47F23050FFF79BFFC0204C4908605A
:1003D000FFF7A5FF47F23050FFF792FFC0204849D2
:1003E0000860FFF79CFF47F23050FFF789FF80203D
:1003F00043490860FFF793FF47F23050FFF780FF53
:10040000282040490860FFF79CFF47F23050FFF773
:1004100077FF0C203B490860FFF793FF4FF44870CB
:10042000FFF76EFF062037490860FFF78AFF4FF499
:100430004870FFF765FF012032490860FFF781FF30
:1004400042F21070FFF75CFF80202E490860FFF732
:1004500078FF4FF44870FFF753FF00BD00B5FFF77A
:1004600055FF2748006825494865102088652020E9
:1004700088651920FFF744FF20202049C86500BD8A
:1004800000B52048007800F0F0001D4908600846DB
:10049000006880000860FFF7E1FF1A48007800F06C
:1004A0000F00174908600846006880010860FFF7E0
:1004B000D5FF4FF47A70FFF723FF00BD00B5012090
:1004C00010490860FFF73DFF42F21070FFF718FF78
:1004D00000BD10B5044600230CE0E05C094908604B
:1004E000FFF7CEFF5B1C102B04D1C020054908602C
:1004F000FFF727FFE05C0028EFD110BD00C0092006
:10050000040000100000001000C00240FF00F0FFD7
:100510002DE9F04781480068C0F3016003287CD1D1
:100520007F48006810F0030006D0012833D002286D
:100530005FD003282ED100E000BF78480068C0F3E8
:10054000074000F101044FF002017648D0F888001E
:10055000C0F30E0000F10100A1FB0001724B4FF04F
:10056000000CA0FB037901FB039100FB0C11224658
:100570006346384600F0ECF805466C480068C0B2A7
:1005800000F1010422464FF00003284600F0E0F895
:10059000674908605DE061480068C0F3074000F10A
:1005A00001044FF002015F48D0F88800C0F30E004C
:1005B00000F10100A1FB00105E4A4FF0000CA1FB0E
:1005C000027900FB029001FB0C012246634638468B
:1005D00000F0BEF8054655480068C0B200F10104BD
:1005E00022464FF00003284600F0B2F85049086058
:1005F0002FE04A480068C0F3074000F101044FF0C3
:1006000002014848D0F88800C0F30E0000F1010054
:10061000A1FB00124FF4004000E01BE04FF000038C
:10062000A1FB007902FB009001FB03012246384642
:1006300000F08EF805463D480068C0B200F10104A4
:1006400022464FF00003284600F082F8384908603F
:1006500000BF2FE03248006810F0030006D00128E8
:1006600010D0022819D0032823D100E000BF2F4862
:100670000068C0B200F101002B49B1FBF0F02C4939
:10068000086016E029480068C0B200F1010029495D
:10069000B1FBF0F0264908600BE024480068C0B2C6
:1006A00000F101004FF40041B1FBF0F02049086077
:1006B00000BF00BFBDE8F08720201F49086019482F
:1006C000D0F8A00110F0200F05D000BF1A48006834
:1006D00010F0400FFAD00320144908601748114960
:1006E000C1F8A8011648174908604FF001000C49ED
:1006F00008604FF00400A1F104010860124813499A
:1007000008604FF480700749C1F8C80108460068C6
:1007100020F4704040F480400860704788C00F406B
:100720000CC10F4000C00F4000093D0004C10F4044
:1007300008000010001BB700A0C10F4055515155D3
:1007400055545554ACC10F40DE872804C4C00F4037
:100750002DE9F05F0546002092469B4688460646F6
:10076000814640241BE0284641464746224600F089
:10077000ACF853465A46C01A914110D31146184658
:100780002246FFF7A9FD2D1A67EB01084F462246C6
:1007900001200021FFF7A0FD17EB00094E41201EAC
:1007A000A4F10104DFDC484631462A464346BDE851
:1007B000F09F80EA010210B502F00043400026D00D
:1007C0004A0023D04FEA106101EB1261C0F35600DA
:1007D000C2F3560240F4000042F40002A0FB0220E3
:1007E000A1F17F014FEA0040140401D000F10100A3
:1007F00050EA124001D44000491EC2B20C0604EB7C
:10080000D010401C4008802A02D003E0002010BD18
:1008100020F00100002900DA0020184310BD30B498
:1008200080EA010202F0004530F0004221F0004071
:1008300015D0A0B1C0F3C753C2F3C754C2F3160119
:10084000C0F31600E41A41F4000140F400027D34C4
:10085000914201D3641C00E04900002C02DA30BC54
:10086000002070474FF400000023914201D3891A01
:10087000034340084FEA4101F7D151B1914202D1FF
:100880004FF0004105E002D24FF0010101E06FF0AE
:10089000010103EBC450284430BC00F026B830B549
:1008A0000B46014600202022012409E021FA02F52E
:1008B0009D4205D303FA02F5491B04FA02F52844C8
:1008C000151EA2F10102F1DC30BD202A04DB203A22
:1008D00021FA02F00021704721FA02F3D040C2F160
:1008E000200291400843194670470029A8BF70476D
:1008F000401C490008BF20F00100704710B4B0FA56
:1009000080FC00FA0CF050EA010404BF10BC7047F0
:1009100049B1CCF1200421FA04F411FA0CF118BF0A
:10092000012121430843A3EB0C01CB1D0106000A62
:10093000002BBEBF002010BC704700EBC35010441A
:100940000029A4BF10BC7047401C490008BF20F01C
:10095000010010BC70472DE9FE4F804681EA03007C
:10096000C00F0C46009021F0004123F00045B8EB89
:100970000200A94105D24046214690461C460B463E
:10098000024623F00040104304D14046214603B004
:10099000BDE8F08F270DC7F30A00C3F30A51029098
:1009A000401A0190402866DAC3F3130040F4801B1C
:1009B0000098924620B10023D2EB030A63EB0B0BA5
:1009C00001985946C0F140025046FFF785FC0646A3
:1009D0000D4650465946019A00F084F910EB080084
:1009E0006141002487EA115284EAE7731A433BD03D
:1009F000009A3AB3019A012A4FEA075210DC001B11
:100A000061EB02014FF0004202EA0752CDE90042D9
:100A1000001C41F5801132462B4600F082F9B6E702
:100A2000001B61EB0201001C41F5801300185B41C3
:100A30002018A2F5001747EB030140EAD570B6195C
:100A40006D4111E06D084FEA360645EAC0754FEA80
:100A50000752001B61EB0201001C41F5801149089F
:100A60004FEA30000019514132462B4603B0BDE831
:100A7000F04F00F049B90098012240000023D0EB6C
:100A8000020263EBE073009821464FEAE074B8EB92
:100A9000000061EB0401E9E783F000435BE781F0CC
:100AA000004158E72DE9FE4F81EA030404F00044B9
:100AB00021F0004100944FF0000B23F0004350EA76
:100AC000010402D052EA030404D10020014603B01D
:100AD000BDE8F08FC3F30A54C1F30A552C44A4F2C5
:100AE000F3340194A0FB0254C1F3130141F48011CB
:100AF000C3F3130343F4801301FB024400FB034ED2
:100B0000840A970A44EA815447EA8357A4FB07689A
:100B100002958D0A05FB07854FEA932C04FB0C54C4
:100B20002705029D4FEA065847EA1637B5EB080538
:100B30006EEB070C870E920E47EA811742EA83128A
:100B4000A7FB0201B6EB0B0164EB00042B0D43EA9B
:100B50000C335E1844EB1C50DA465146E7FB0201A9
:100B6000C5F313044FEA0B3343EA14534FEA04323C
:100B7000019C43EA0603A4F10C040294009CCDE915
:100B800000B400F0CEF8A2E72DE9F04D81EA0304AD
:100B900004F0004B21F0004514464FF0000A23F00A
:100BA000004150EA050220D054EA01021DD0C5F3ED
:100BB0000A570246C5F31303C1F31300C1F30A56E3
:100BC00040F4801543F48013A7EB0608101BD646AB
:100BD00008F2FD3873EB050002D308F1010801E0CB
:100BE00092185B41B8F1000F03DA00200146BDE81E
:100BF000F08D00204FF48011064684460EE0171B4E
:100C000073EB050705D3121B63EB050306434CEAA0
:100C1000010C49084FEA300092185B4150EA010785
:100C2000EDD152EA030012D082EA040083EA050102
:100C3000084303D100224FF0004308E0101BAB41F2
:100C400002D20122002302E06FF0010253101AEBDE
:100C500006004CEB085110EB0A0041EB0B01BDE81C
:100C6000F04D00F051B8C1F30A52C1F3130140F244
:100C7000FF3341F480119A4202DA002001467047A6
:100C800040F233439A42A2F2334202DC5242FFF76F
:100C90001CBEFFF721BB000030B5002904DB4FF07C
:100CA0000044404264EB0101002B04DB4FF00044A0
:100CB000524264EB0303994208BF904230BD0000EA
:100CC000064C074D06E0E06840F0010394E8070099
:100CD00098471034AC42F6D3FFF7FCF9B816000081
:100CE000D8160000202A06DBCB17203A41FA02F082
:100CF00043EAE07306E041FA02F3D040C2F1200279
:100D0000914008431946704710B5002B08DA401C83
:100D100041F1000192185B411A4301D120F001001A
:100D200010BD2DE9F04D92469B4611B1B1FA81F20A
:100D300002E0B0FA80F220329046FFF7CDFA044686
:100D40000F4640EA0A0041EA0B0153465A4608435F
:100D500003D120463946BDE8F08D114653EA010023
:100D600015D0C8F140025046FFF7AFFD05460E46CC
:100D7000504659464246FFF7AFFA084301D00120DA
:100D800000E00020054346EAE0762C4337430A980A
:100D90004FEA4453A0EB08004FEAD4240A304FF046
:100DA000000244EA47544FEAD72502D50020014605
:100DB000D1E7010510196941DDE9084500196941CC
:100DC000BDE8F04DA0E700000FB4084B10B504A932
:100DD00002AA039800F0C8F8044602A9002000F017
:100DE00066FC204610BC5DF814FB0000AF16000046
:100DF00002E008C8121F08C1002AFAD1704700207B
:100E000001E001C1121F002AFBD170472DE9FF5FED
:100E1000DDE90220010DDDF838B0024310D10F9852
:100E200001244CA2012808D0002100980F9BC0E9A2
:100E30000021C0E90243BDE8FF9F6FEA0B01F4E720
:100E4000A1F2FF3144F6105041430D140F980128D0
:100E50000ED0A5EB0B00401C4FF000043E4EDFF817
:100E6000FC90B0F1000AA04605DACAF1000717E0CD
:100E7000CBF10000F0E7074612E0F80707D0224662
:100E8000334640464946FFF70DFE804689462246D6
:100E9000334610461946FFF705FE04460E467F10FE
:100EA000002FEAD1DDE90201BAF1000F42464B46BC
:100EB00002DAFFF7F7FD01E0FFF766FE04460E4693
:100EC0000022274BFFF7E8FE03D84FF0FF30014622
:100ED00007E00022234B20463146FFF73CFDFFF799
:100EE000C2FE102409E0002C0ADB0A220023FFF7CF
:100EF0002FFC019B30321A55641E50EA0102F2D1D8
:100F0000641C019AC4F1110314440F9A012A09D0F8
:100F10000122084301D15B450FDD4FF0000205F1CE
:100F200001050DE0084303D1A3EB0B056D1E09E09D
:100F300000204FF0110B0F9088E701DA00226D1EA0
:100F4000002A83D000980F99C0E90231C0E900451A
:100F500071E7000030000000000024400000F03F76
:100F60000000F0430000E03F2DE9FF4F95B09B46A5
:100F700089460646002512E2252878D10024761CF1
:100F8000F94A2746012105943378203B01FA03F002
:100F9000104202D00443761CF6E730782A2811D09C
:100FA0006FF02F033078A0F13002092A16D8059A85
:100FB00044F0020402EB820203EB42021044761C6E
:100FC0000590EFE759F8042B0592002A03DA504206
:100FD00044F40054059044F00204761C30782E2826
:100FE00016D116F8010F44F004042A280DD06FF032
:100FF0002F023078A0F13003092B09D807EB8703C3
:1010000002EB4303C718761CF3E759F8047B761C00
:1010100030786C280FD006DC4C2817D068280DD00B
:101020006A2814D104E0742810D07A280FD10DE07A
:1010300044F400140AE044F4801401E044F4401441
:101040007278824202D1761C04F58014761C3078C6
:1010500066280BD013DC582877D009DC002875D01F
:101060004528F6D04628F4D047281AD19FE118E049
:10107000632835D0642879D0652812D197E170288B
:1010800073D008DC6728F1D069286FD06E280DD0A6
:101090006F2806D1B5E073282CD0752875D0782834
:1010A00074D05A46179990476D1C76E1C4F30250EC
:1010B000022809D003280DD0D9F8001004280DD03B
:1010C0000D6009F1040968E1D9F80010EA17C1E9D7
:1010D0000052F6E7D9F800100D80F2E70D70F0E746
:1010E00019F8041B8DF8001000208DF80100EA4665
:1010F000012003E059F804AB4FF0FF3061074FF0D7
:10110000000102D40DE008F101018846B9420FDA6E
:101110008045F8DB1AF808100029F4D108E008F13E
:10112000010188468142FADB1AF808100029F6D13D
:1011300005985B46A0EB080721463846179A00F051
:101140009EFA284400EB080507E04DE02BE10DE096
:101150001AF8010B5A4617999047B8F10108F7D2CF
:101160005B4621463846179A14E142E00A22009273
:10117000C4F302524FF0000A022A08D059F804CBF7
:10118000032A4FEAEC710AD00DE029E02AE009F1C8
:10119000070121F00702F2E802C1914609E00FFAC7
:1011A0008CFC4FEAEC71042A03D14FFA8CFC4FEA15
:1011B000EC71002907DA0A460021DCF1000C61EB32
:1011C00002012D2202E0220504D52B228DF80420F5
:1011D000012203E0E20701D02022F7E7904653E026
:1011E0000A2102E010220DE010214FF0000A0091C8
:1011F0000BE010224FF0000A44F00404082700928C
:1012000003E008224FF0000A0092C4F30252022ABF
:1012100005D059F804CB0021032A08D009E009F1D0
:10122000070121F00702F2E802C1914605E01FFA2A
:101230008CFC042A01D10CF0FF0C4FF000082207AF
:1012400022D5702827D0009B83F0100353EA0A03AD
:1012500009D15CEA010206D030228DF804208DF815
:10126000050002229046009B83F0080353EA0A031C
:101270000AD15CEA010201D1620705D530228DF85E
:1012800004204FF001087F1E582809D037A0039092
:101290000EA8029013E040228DF804200122E1E71D
:1012A00037A0F4E753466046009AFFF751FA8446A8
:1012B0000398825C0298A0F10100029002705CEA3F
:1012C0000100EFD1029806A9A1EB000000F1200A6D
:1012D000600702D524F4803400E00127574502DD81
:1012E000A7EB0A0000E0002000EB0A01009005983F
:1012F0004144A0EB01000590E00306D45B46214683
:10130000179A059800F0BBF90544002706E001A8EC
:101310005A46C05D179990476D1C7F1C4745F6DB08
:10132000E0030CD55B462146179A059800F0A7F913
:10133000054404E030205A46179990476D1C0099E7
:10134000481E00900029F5DC08E0029802995A46F0
:101350000078491C0291179990476D1CBAF1000161
:10136000AAF1010AF1DC6BE10928010030313233C6
:1013700034353637383961626364656600000000D1
:1013800030313233343536373839414243444546BB
:101390000000000000F060F9054406F10106307815
:1013A00000287FF4E9AD19B02846BDE8F08F620748
:1013B00000D4062709F1070222F0070CFCE80223FB
:1013C000E14603F000485FEA080C02D00FF27C2CE3
:1013D0000DE05FEA045C02D50FF2742C07E05FEACF
:1013E000C47C02D00FF26C2C01E0AFF2700C4FF015
:1013F000FF3823F00043CDF850C065280CD006DC40
:10140000452809D046281DD047283ED13EE0662811
:1014100018D0672839D139E00021112F01DB1120C4
:1014200000E0781CCDE9000106A90EA8FFF7EEFC4C
:10143000DDE90F010E9A03910021009207F1010AE4
:1014400004914EE04FF000400097CDE9011006A94D
:101450000EA8FFF7DBFCDDE90F0203920E9B11994A
:101460000022DDF80CA00093049219B907F10101E4
:1014700000EB010AB7EB0A0004D4C0F1FF3007F11A
:10148000010A0490AAEB0700019046E0012F00DA60
:1014900001270021112F01DD112000E03846CDE9A0
:1014A000000106A90EA8FFF7B1FCDDE90F010E9AB5
:1014B0000391002104910092BA4621070CD40399AC
:1014C000514500DA8A46BAF1010F05DD009AAAF10A
:1014D0000101515C302908D0B84202DA10F1040F42
:1014E00006DA0121CDE9011017E0AAF10101E9E7CF
:1014F000002805DC049901440491AAEB000102E0F4
:10150000411C514500DD8A460499A0EB010000F121
:10151000010001904FF000400290200704D4019890
:10152000504501DBCDF8048000208DF84F00029873
:101530000DF14F07B0F1004F25D02B200E900298EF
:101540004FF0020800280CDA404202902D200E9045
:1015500007E00A210298FFF7A2F93031029007F85C
:10156000011DB8F10001A8F10108F2DC0298002881
:10157000EFD1791E0E980870307800F0200040F00E
:10158000450007F8020D12A8A0EB070000F10708BC
:101590001498007800B1012000EB0A01019801EBDA
:1015A000E07105984144A0EB0100A0F10100059015
:1015B000E00306D45B462146179A059800F05FF8D1
:1015C00005441498007820B15A461799904705F1C0
:1015D0000105E00323D55B462146179A059800F0E4
:1015E0004EF805441BE00498002807DBDDE9030101
:1015F000884203DD0098405C179901E0179930207C
:101600005A46904704986D1C401C04900198401E57
:10161000019004D12E205A46179990476D1CBAF1BB
:101620000001AAF1010ADEDC05E017F8010B5A46B9
:10163000179990476D1CB8F10001A8F10108F4DC7E
:101640005B462146179A0598A4E600002D0000008D
:101650002B000000200000002DE9F0410446002589
:101660001E461746880405D406E039462020B047B8
:1016700005F10105641EF8D52846BDE8F0812DE985
:10168000F041044600251E469046C80301D5302788
:1016900000E02027880405D506E041463846B047DB
:1016A00005F10105641EF8D52846BDE8F0810A68F9
:1016B000531C0B6010707047D8160000000000101B
:1016C0000C000000F00D0000E41600000C000010FB
:1016D00004020000FE0D00000000000000000000F9
:0416E000C0C62D0053
:04000005000000CD2A
:00000001FF
