:020000040000FA
:10000000C0020010690100007101000073010000CE
:100010007501000077010000790100000000000078
:100020000000000000000000000000007B01000054
:100030007D010000000000007F0100008101000040
:1000400083010000830100008301000083010000A0
:100050008301000083010000830100008301000090
:100060008301000083010000830100008301000080
:100070008301000083010000830100008301000070
:100080008301000083010000830100008301000060
:100090008301000083010000830100008301000050
:1000A0008301000083010000830100008301000040
:1000B0008301000083010000830100008301000030
:1000C00083010000830100008301000000F002F8BA
:1000D00000F03AF80AA090E8000C82448344AAF1A8
:1000E0000107DA4501D100F02FF8AFF2090EBAE8A6
:1000F0000F0013F0010F18BFFB1A43F0010318475C
:100100004C0800006C080000103A24BF78C878C181
:10011000FAD8520724BF30C830C144BF04680C600D
:10012000704700000023002400250026103A28BF55
:1001300078C1FBD8520728BF30C148BF0B60704759
:100140001FB51FBD10B510BD00F0A6F81146FFF792
:10015000F7FF00F008FA00F0C4F803B4FFF7F2FF6D
:1001600003BC00F0EDFB0000094880470948004748
:10017000FEE7FEE7FEE7FEE7FEE7FEE7FEE7FEE757
:10018000FEE7FEE704480549034A054B70470000B7
:10019000A9080000CD000000C0000010C00200103F
:1001A000C000001053EA020C00F069802DE9F04B0A
:1001B0004FF00006002B1FBFB3FA83F503FA05F4D6
:1001C00024FA05F65E4012BF1643B2FA82F502FA2F
:1001D00005F4C5F120051EBF22FA05FC44EA0C0413
:1001E000203556EA044C4FEA144418BF641C4FF003
:1001F00000084FF00009904271EB030C39D300293D
:1002000019BFB1FA81F701FA07F6B0FA80F700FAE0
:1002100007F6C7F120071EBF20FA07FC46EA0C06C6
:100220002037B6FBF4FCA7EB0507103F07F01F0BC8
:10023000CBF120060CFA0BFB2CFA06F644BFB346B2
:100240000026202FA4BF5E464FF0000B5BEA060C91
:1002500008BF4FF0010B19EB0B09ABFB027C48EB1D
:100260000608C01B06FB02CC0BFB03CC71EB0C0198
:10027000C1E70B46024641464846BDE8F08B13B540
:100280004FF000004FF00001AFF30080BDE81C40CC
:100290007047704770477047754600F029F8AE46C2
:1002A00005006946534620F00700854618B020B582
:1002B000FFF768FFBDE820404FF000064FF0000751
:1002C0004FF000084FF0000B21F00701AC46ACE8FE
:1002D000C009ACE8C009ACE8C009ACE8C0098D466B
:1002E00070470446AFF300802046FFF736FF00005A
:1002F000004870476000001070470000FFFFFFFFDC
:10030000002100E0491C8142FCD370474FF470701B
:100310007A49C8651020C8652020C865704700B5B7
:10032000FFF7F4FF76480068744948651020C865F7
:10033000202088651920FFF7E3FF20206F49C8655A
:1003400000BD00B56F48007800F0F0006C4908600F
:100350000846006880000860FFF7E1FF6948007800
:1003600000F00F00664908600846006880010860D8
:10037000FFF7D5FF4FF47A70FFF7C2FF00BD00B55D
:1003800061480069614908405F4908615B48006C49
:1003900040F47070594908640846006C40F0100041
:1003A00008640846006C40F020000864FFF7AEFFC8
:1003B0004FF44860FFF7A4FFC02051490860FFF7E1
:1003C000AEFF47F23050FFF79BFFC0204C4908605A
:1003D000FFF7A5FF47F23050FFF792FFC0204849D2
:1003E0000860FFF79CFF47F23050FFF789FF80203D
:1003F00043490860FFF793FF47F23050FFF780FF53
:10040000282040490860FFF79CFF47F23050FFF773
:1004100077FF0C203B490860FFF793FF4FF44870CB
:10042000FFF76EFF062037490860FFF78AFF4FF499
:100430004870FFF765FF012032490860FFF781FF30
:1004400042F21070FFF75CFF80202E490860FFF732
:1004500078FF4FF44870FFF753FF00BD00B5FFF77A
:1004600055FF2748006825494865102088652020E9
:1004700088651920FFF744FF20202049C86500BD8A
:1004800000B52048007800F0F0001D4908600846DB
:10049000006880000860FFF7E1FF1A48007800F06C
:1004A0000F00174908600846006880010860FFF7E0
:1004B000D5FF4FF47A70FFF723FF00BD00B5012090
:1004C00010490860FFF73DFF42F21070FFF718FF78
:1004D00000BD10B5044600230CE0E05C094908604B
:1004E000FFF7CEFF5B1C102B04D1C020054908602C
:1004F000FFF727FFE05C0028EFD110BD00C0092006
:10050000040000100000001000C00240FF00F0FFD7
:100510006E49486900F4F020B0F5F02F22D0002198
:100520006B4A116004E06A490968491C684A116015
:1005300067490968B1F5FA7FF5D36449486900F461
:10054000F020B0F5F02F0DD00121624A1170C00BE0
:1005500061490968090C604A116011460978014334
:100560005E4A1170704700F09FF900F0C9F85C48CE
:10057000C06820F47F405A49C8600846006820F0EF
:10058000404008600846406820F03F0048604F48FF
:10059000006820F4F0204D4908600846006A40F4E5
:1005A000700008624FF470008863FFF7E8FE802057
:1005B0004C490860FFF7C5FE4FF44870FFF7A0FEF6
:1005C0004948FFF786FFC02046490860FFF7B9FE9B
:1005D0004FF44870FFF794FE4448FFF77AFF73E04A
:1005E00047E001204249087039E04148007801287D
:1005F00003D100053F49086017E03D480078022814
:1006000003D100053B4908600FE039480078032812
:1006100004D14FF480003749086006E03448007880
:10062000042802D1400533490860324800682A494D
:1006300008604FF47000254988632E480068C8633D
:10064000002024490870FFF763FF22480078012842
:1006500000D108E026480078401C2549087024484D
:1006600000780528C1DB00BF1A480078012800D1B6
:1006700000E0B6E700BF00201549086013E01E48FF
:1006800013490968405C15490978884206D11B481E
:100690000F490968405C1149087008E00C4800687F
:1006A000401C0B4908600A4800681028E7D300BFC7
:1006B000CC200C490860FFF744FE4FF44870FFF768
:1006C0001FFE0648FFF705FF8AE7000000C009206B
:1006D0004C000010460000105400001047000010AD
:1006E00000C00240000000100800001016000010BA
:1006F00044000010500000102300001033000010D0
:100700002DE9F04781480068C0F3016003287CD1DF
:100710007F48006810F0030006D0012833D002287B
:100720005FD003282ED100E000BF78480068C0F3F6
:10073000074000F101044FF002017648D0F888002C
:10074000C0F30E0000F10100A1FB0001724B4FF05D
:10075000000CA0FB037901FB039100FB0C11224666
:1007600063463846FFF71EFD05466C480068C0B278
:1007700000F1010422464FF000032846FFF712FD66
:10078000674908605DE061480068C0F3074000F118
:1007900001044FF002015F48D0F88800C0F30E005A
:1007A00000F10100A1FB00105E4A4FF0000CA1FB1C
:1007B000027900FB029001FB0C0122466346384699
:1007C000FFF7F0FC054655480068C0B200F101048F
:1007D00022464FF000032846FFF7E4FC504908602A
:1007E0002FE04A480068C0F3074000F101044FF0D1
:1007F00002014848D0F88800C0F30E0000F1010063
:10080000A1FB00124FF4004000E01BE04FF000039A
:10081000A1FB007902FB009001FB03012246384650
:10082000FFF7C0FC05463D480068C0B200F1010476
:1008300022464FF000032846FFF7B4FC3849086011
:1008400000BF2FE03248006810F0030006D00128F6
:1008500010D0022819D0032823D100E000BF2F4870
:100860000068C0B200F101002B49B1FBF0F02C4947
:10087000086016E029480068C0B200F1010029496B
:10088000B1FBF0F0264908600BE024480068C0B2D4
:1008900000F101004FF40041B1FBF0F02049086085
:1008A00000BF00BFBDE8F08720201F49086019483D
:1008B000D0F8A00110F0200F05D000BF1A48006842
:1008C00010F0400FFAD0032014490860174811496E
:1008D000C1F8A8011648174908604FF001000C49FB
:1008E00008604FF00400A1F10401086012481349A8
:1008F00008604FF480700749C1F8C80108460068D5
:1009000020F4704040F480400860704788C00F4079
:100910000CC10F4000C00F4000093D0004C10F4052
:100920005C000010001BB700A0C10F40555151558D
:1009300055545554ACC10F40DE872804C4C00F4045
:1009400001491820ABBEFEE7260002006C0900003A
:10095000000000106000000008010000CC09000049
:100960006000001060020000240100000000000090
:1009700000000000414C532042454E47414C555227
:1009800055004B455920505245535345443D001E98
:100990001D1B172E2D2B274E4D4B478E8D8B8730D1
:1009A00031323334353637383941424344454600D5
:1009B0000000000000000000000000000000000037
:0C09C0000000000000000000C0C62D0078
:04000005000000CD2A
:00000001FF
