:020000040000FA
:1000000010020010E1000000E9000000EB00000019
:10001000ED000000EF000000F10000000000000013
:10002000000000000000000000000000F3000000DD
:10003000F500000000000000F7000000F9000000DB
:10004000FB000000FB000000FB000000FB000000C4
:10005000FB000000FB000000FB000000FB000000B4
:10006000FB0000009B010000FB000000FB00000003
:10007000FB000000FB000000FB000000FB00000094
:10008000FB000000FB000000FB000000FB00000084
:10009000FB000000FB000000FB000000FB00000074
:1000A000FB000000FB000000FB000000FB00000064
:1000B000FB000000FB000000FB000000FB00000054
:1000C000FB000000FB000000FB000000DFF80CD08C
:1000D00000F036FA004800476F01000010020010DF
:1000E0000648804706480047FEE7FEE7FEE7FEE7D2
:1000F000FEE7FEE7FEE7FEE7FEE7FEE7A9040000F5
:10010000CD0000004C48006840F040004B49C1F869
:10011000C4004B48C06840F400304949C8604FF003
:1001200000004849C8604FF40050C8644FF0030015
:10013000486147F2305088614FF4807048644FF056
:10014000FF0008654FF0020048604FF0090048606A
:1001500000BF4FF0010101FA00F14FEA50124FF0D9
:10016000E02303EB8202C2F8001100BF704700F0E9
:100170009BF900F0C5F8FFF7C5FF0DE000203249FC
:10018000086004E030480068401C2F4908602E4891
:100190000068B0F57A7FF5D9F0E7FF2029490860BB
:1001A0002A48007808BB0846406C64304864FF2049
:1001B00008650846406C49F28801884206D3FF2052
:1001C00023490870214908701E49086500201E490E
:1001D000086004E01C480068401C1B4908601A487D
:1001E0000068B0F5FA5FF5D325E019480078FF28DC
:1001F00021D11448406C643812494864FF200865D6
:100200000846406CB0F5A06F07D800200F49087071
:100210000F490870FF200B49086500200A49086053
:1002200004E009480068401C074908600648006867
:10023000B0F5FA5FF5D37047C4C00F4000C00F405F
:1002400000C00240008001400000001008000010C3
:10025000090000102DE9F05F0546002092469B46FC
:1002600088460646814640241BE0284641464746CC
:10027000224600F02FF853465A46C01A914110D337
:1002800011461846224600F016F82D1A67EB0108B1
:100290004F4622460120002100F00DF817EB00091F
:1002A0004E41201EA4F10104DFDC484631462A46B7
:1002B0004346BDE8F09F202A04DB203A00FA02F111
:1002C000002070479140C2F1200320FA03F3194344
:1002D00090407047202A04DB203A21FA02F00021E6
:1002E000704721FA02F3D040C2F120029140084346
:1002F000194670477047000000000000FFFFFFFF35
:100300002DE9F04781480068C0F3016003287CD1E3
:100310007F48006810F0030006D0012833D002287F
:100320005FD003282ED100E000BF78480068C0F3FA
:10033000074000F101044FF002017648D0F8880030
:10034000C0F30E0000F10100A1FB0001724B4FF061
:10035000000CA0FB037901FB039100FB0C1122466A
:1003600063463846FFF776FF05466C480068C0B222
:1003700000F1010422464FF000032846FFF76AFF10
:10038000674908605DE061480068C0F3074000F11C
:1003900001044FF002015F48D0F88800C0F30E005E
:1003A00000F10100A1FB00105E4A4FF0000CA1FB20
:1003B000027900FB029001FB0C012246634638469D
:1003C000FFF748FF054655480068C0B200F1010438
:1003D00022464FF000032846FFF73CFF50490860D3
:1003E0002FE04A480068C0F3074000F101044FF0D5
:1003F00002014848D0F88800C0F30E0000F1010067
:10040000A1FB00124FF4004000E01BE04FF000039E
:10041000A1FB007902FB009001FB03012246384654
:10042000FFF718FF05463D480068C0B200F101041F
:1004300022464FF000032846FFF70CFF38490860BA
:1004400000BF2FE03248006810F0030006D00128FA
:1004500010D0022819D0032823D100E000BF2F4874
:100460000068C0B200F101002B49B1FBF0F02C494B
:10047000086016E029480068C0B200F1010029496F
:10048000B1FBF0F0264908600BE024480068C0B2D8
:1004900000F101004FF40041B1FBF0F02049086089
:1004A00000BF00BFBDE8F08720201F490860194841
:1004B000D0F8A00110F0200F05D000BF1A48006846
:1004C00010F0400FFAD00320144908601748114972
:1004D000C1F8A8011648174908604FF001000C49FF
:1004E00008604FF00400A1F10401086012481349AC
:1004F00008604FF480700749C1F8C80108460068D9
:1005000020F4704040F480400860704788C00F407D
:100510000CC10F4000C00F4000093D0004C10F4056
:100520000C000010001BB700A0C10F4055515155E1
:1005300055545554ACC10F40DE872804C4C00F4049
:10054000064C074D06E0E06840F0010394E8070020
:1005500098471034AC42F6D3FFF7BCFD800500008D
:10056000A005000002E008C8121F08C1002AFAD145
:100570007047002001E001C1121F002AFBD1704723
:10058000A00500000000001010000000640500003D
:10059000B00500001000001000020000720500000D
:1005A000000000000000000000000000C0C62D0098
:04000005000000CD2A
:00000001FF
