:020000040000FA
:1000000020020010E1000000E9000000EB00000009
:10001000ED000000EF000000F10000000000000013
:10002000000000000000000000000000F3000000DD
:10003000F500000000000000F7000000F9000000DB
:10004000FB000000FB000000FB000000FB000000C4
:10005000FB00000001020000FB000000FB000000AC
:10006000FB000000FB000000FB000000FB000000A4
:10007000FB000000FB000000FB000000FB00000094
:10008000FB000000FB000000FB000000FB00000084
:10009000FB000000FB000000FB000000FB00000074
:1000A000FB000000FB000000FB000000FB00000064
:1000B000FB000000FB000000FB000000FB00000054
:1000C000FB000000FB000000FB000000DFF80CD08C
:1000D00000F036FA004800478101000020020010BD
:1000E0000648804706480047FEE7FEE7FEE7FEE7D2
:1000F000FEE7FEE7FEE7FEE7FEE7FEE7A9040000F5
:10010000CD0000000021444A116004E04249096822
:10011000491C414A1160404909688142F6D3704741
:100120003E48006840F008003D49C1F8C4003D4821
:10013000006840F050003B4908604FF083003A49A6
:1001400008734FF0000008714FF0130008704FF073
:10015000030008734FF0070008724FF00300486077
:100160004FF005004FF0010101FA00F14FEA501283
:100170004FF0E02303EB8202C2F8001100BF70478A
:1001800000F092F900F0BCF8FFF7CAFF37E027480B
:10019000274908601DE02648006800782249087059
:1001A00023480068401C2249086000BF21480078AD
:1001B0000028FBD000201F4908701F49086004E098
:1001C0001D480068401C1C4908601B480068C8287E
:1001D000F6D31748006800780028DCD1164908607B
:1001E00008E040F27120FFF78DFF13480068401CC3
:1001F0001149086010480068B0F5FA7FF1D3C6E7EE
:100200000949886800F0060000F00201022902D1C5
:10021000FF21084A1170704700000010C4C00F4051
:1002200000C00F4000C0024000C0004009000010A4
:100230001800001008000010040000102DE9F05F05
:100240000546002092469B46884606468146402445
:100250001BE0284641464746224600F02FF8534609
:100260005A46C01A914110D311461846224600F052
:1002700016F82D1A67EB01084F462246012000218F
:1002800000F00DF817EB00094E41201EA4F1010407
:10029000DFDC484631462A464346BDE8F09F202A27
:1002A00004DB203A00FA02F1002070479140C2F1CD
:1002B000200320FA03F3194390407047202A04DBFF
:1002C000203A21FA02F00021704721FA02F3D040CF
:1002D000C2F12002914008431946704702E008C865
:1002E000121F08C1002AFAD170477047002001E0B0
:1002F00001C1121F002AFBD170470000FFFFFFFF62
:100300002DE9F04781480068C0F3016003287CD1E3
:100310007F48006810F0030006D0012833D002287F
:100320005FD003282ED100E000BF78480068C0F3FA
:10033000074000F101044FF002017648D0F8880030
:10034000C0F30E0000F10100A1FB0001724B4FF061
:10035000000CA0FB037901FB039100FB0C1122466A
:1003600063463846FFF76AFF05466C480068C0B22E
:1003700000F1010422464FF000032846FFF75EFF1C
:10038000674908605DE061480068C0F3074000F11C
:1003900001044FF002015F48D0F88800C0F30E005E
:1003A00000F10100A1FB00105E4A4FF0000CA1FB20
:1003B000027900FB029001FB0C012246634638469D
:1003C000FFF73CFF054655480068C0B200F1010444
:1003D00022464FF000032846FFF730FF50490860DF
:1003E0002FE04A480068C0F3074000F101044FF0D5
:1003F00002014848D0F88800C0F30E0000F1010067
:10040000A1FB00124FF4004000E01BE04FF000039E
:10041000A1FB007902FB009001FB03012246384654
:10042000FFF70CFF05463D480068C0B200F101042B
:1004300022464FF000032846FFF700FF38490860C6
:1004400000BF2FE03248006810F0030006D00128FA
:1004500010D0022819D0032823D100E000BF2F4874
:100460000068C0B200F101002B49B1FBF0F02C494B
:10047000086016E029480068C0B200F1010029496F
:10048000B1FBF0F0264908600BE024480068C0B2D8
:1004900000F101004FF40041B1FBF0F02049086089
:1004A00000BF00BFBDE8F08720201F490860194841
:1004B000D0F8A00110F0200F05D000BF1A48006846
:1004C00010F0400FFAD00320144908601748114972
:1004D000C1F8A8011648174908604FF001000C49FF
:1004E00008604FF00400A1F10401086012481349AC
:1004F00008604FF480700749C1F8C80108460068D9
:1005000020F4704040F480400860704788C00F407D
:100510000CC10F4000C00F4000093D0004C10F4056
:100520001C000010001BB700A0C10F4055515155D1
:1005300055545554ACC10F40DE872804C4C00F4049
:10054000064C074D06E0E06840F0010394E8070020
:1005500098471034AC42F6D3FFF7BCFD64050000A9
:100560008405000084050000000000102000000049
:10057000DC020000A40500002000001000020000C2
:10058000EC02000000000000000000000048656C64
:100590006C6F20776F726C640D000000000000002B
:0405A000C0C62D00A4
:04000005000000CD2A
:00000001FF
