:020000040000FA
:100000006802001069010000710100007301000026
:100010007501000077010000790100000000000078
:100020000000000000000000000000007B01000054
:100030007D010000000000007F0100008101000040
:1000400083010000830100008301000083010000A0
:100050008301000083010000830100008301000090
:100060008301000083010000830100008301000080
:100070008301000083010000830100008301000070
:100080008301000083010000830100008301000060
:100090008301000083010000830100008301000050
:1000A0008301000083010000830100008301000040
:1000B0008301000083010000830100008301000030
:1000C00083010000830100008301000000F002F8BA
:1000D00000F03AF80AA090E8000C82448344AAF1A8
:1000E0000107DA4501D100F02FF8AFF2090EBAE8A6
:1000F0000F0013F0010F18BFFB1A43F0010318475C
:100100003C0500005C050000103A24BF78C878C1A7
:10011000FAD8520724BF30C830C144BF04680C600D
:10012000704700000023002400250026103A28BF55
:1001300078C1FBD8520728BF30C148BF0B60704759
:100140001FB51FBD10B510BD00F0A5F81146FFF793
:10015000F7FF00F05BF800F0C3F803B4FFF7F2FF1D
:1001600003BC00F065FA00000948804709480047D1
:10017000FEE7FEE7FEE7FEE7FEE7FEE7FEE7FEE757
:10018000FEE7FEE704480549034A054B70470000B7
:10019000A9040000CD0000006800001068020010F3
:1001A000680000104FF080703549C8630020354961
:1001B000086004E033480068401C32490860314858
:1001C000006842F210718842F4D34FF080602C49ED
:1001D000C8618010886370474FF080702849C863F9
:1001E00000202849086004E026480068401C254992
:1001F00008602448006842F210718842F4D34FF03E
:1002000080601F49886180108863704700F04CF956
:100210001D48406820F440101B4948600846C068EB
:1002200020F44050C8601648006840F080601449CF
:1002300008600846006A40F0807008621FE0FFF71F
:10024000CBFF00200F49086004E00E480068401C06
:100250000C4908600B4800680C498842F5D3FFF749
:10026000A1FF00200749086004E006480068401C20
:10027000044908600348006804498842F5D3DEE772
:1002800000C009200000001000C00240400D030023
:10029000704770477047754600F028F8AE46050075
:1002A0006946534620F00700854618B020B5FFF791
:1002B00069FFBDE820404FF000064FF000074FF007
:1002C00000084FF0000B21F00701AC46ACE8C00974
:1002D000ACE8C009ACE8C009ACE8C0098D4670477D
:1002E0000446AFF300802046FFF737FF0048704711
:1002F000080000107047000000000000FFFFFFFF33
:100300002DE9F04781480068C0F3016003287CD1E3
:100310007F48006810F0030006D0012833D002287F
:100320005FD003282ED100E000BF78480068C0F3FA
:10033000074000F101044FF002017648D0F8880030
:10034000C0F30E0000F10100A1FB0001724B4FF061
:10035000000CA0FB037901FB039100FB0C1122466A
:100360006346384600F0ECF805466C480068C0B2B9
:1003700000F1010422464FF00003284600F0E0F8A7
:10038000674908605DE061480068C0F3074000F11C
:1003900001044FF002015F48D0F88800C0F30E005E
:1003A00000F10100A1FB00105E4A4FF0000CA1FB20
:1003B000027900FB029001FB0C012246634638469D
:1003C00000F0BEF8054655480068C0B200F10104CF
:1003D00022464FF00003284600F0B2F8504908606A
:1003E0002FE04A480068C0F3074000F101044FF0D5
:1003F00002014848D0F88800C0F30E0000F1010067
:10040000A1FB00124FF4004000E01BE04FF000039E
:10041000A1FB007902FB009001FB03012246384654
:1004200000F08EF805463D480068C0B200F10104B6
:1004300022464FF00003284600F082F83849086051
:1004400000BF2FE03248006810F0030006D00128FA
:1004500010D0022819D0032823D100E000BF2F4874
:100460000068C0B200F101002B49B1FBF0F02C494B
:10047000086016E029480068C0B200F1010029496F
:10048000B1FBF0F0264908600BE024480068C0B2D8
:1004900000F101004FF40041B1FBF0F02049086089
:1004A00000BF00BFBDE8F08720201F490860194841
:1004B000D0F8A00110F0200F05D000BF1A48006846
:1004C00010F0400FFAD00320144908601748114972
:1004D000C1F8A8011648174908604FF001000C49FF
:1004E00008604FF00400A1F10401086012481349AC
:1004F00008604FF480700749C1F8C80108460068D9
:1005000020F4704040F480400860704788C00F407D
:100510000CC10F4000C00F4000093D0004C10F4056
:1005200004000010001BB700A0C10F4055515155E9
:1005300055545554ACC10F40DE872804C4C00F4049
:1005400053EA020C00F069802DE9F04B4FF00006F1
:10055000002B1FBFB3FA83F503FA05F424FA05F65E
:100560005E4012BF1643B2FA82F502FA05F4C5F1F5
:1005700020051EBF22FA05FC44EA0C04203556EA89
:10058000044C4FEA144418BF641C4FF000084FF0AD
:100590000009904271EB030C39D3002919BFB1FA5D
:1005A00081F701FA07F6B0FA80F700FA07F6C7F10B
:1005B00020071EBF20FA07FC46EA0C062037B6FBD0
:1005C000F4FCA7EB0507103F07F01F0BCBF120064B
:1005D0000CFA0BFB2CFA06F644BFB3460026202F7C
:1005E000A4BF5E464FF0000B5BEA060C08BF4FF05D
:1005F000010B19EB0B09ABFB027C48EB0608C01B97
:1006000006FB02CC0BFB03CC71EB0C01C1E70B46E4
:10061000024641464846BDE8F08B13B54FF0000056
:100620004FF00001AFF30080BDE81C4070470000B0
:1006300001491820ABBEFEE7260002005C06000060
:10064000000000100800000008010000640600001F
:1006500008000010600200002401000000000000FB
:04066000C0C62D00E3
:04000005000000CD2A
:00000001FF
