:020000040000FA
:1000000030020010E1000000E9000000EB000000F9
:10001000ED000000EF000000F10000000000000013
:10002000000000000000000000000000F3000000DD
:10003000F500000000000000F7000000F9000000DB
:10004000FB000000FB000000FB000000FB000000C4
:10005000FB000000FB000000FB000000FB000000B4
:10006000FB000000FB000000FB000000FB000000A4
:10007000FB000000FB000000FB000000FB00000094
:10008000FB000000FB000000FB000000FB00000084
:10009000FB000000FB000000FB000000FB00000074
:1000A000FB000000FB000000FB000000FB00000064
:1000B000FB000000FB000000FB000000FB00000054
:1000C000FB000000FB000000FB000000DFF80CD08C
:1000D00000F07AF8004800470501000030020010E7
:1000E0000648804706480047FEE7FEE7FEE7FEE7D2
:1000F000FEE7FEE7FEE7FEE7FEE7FEE7A9040000F5
:10010000CD00000000F0D0F900F070F8044800685D
:10011000044908600248006800F07CFB00BFFEE76D
:1001200004000010080000102DE9F05F05460020D3
:1001300092469B4688460646814640241BE0284658
:1001400041464746224600F02FF853465A46C01A09
:10015000914110D311461846224600F016F82D1A88
:1001600067EB01084F4622460120002100F00DF800
:1001700017EB00094E41201EA4F10104DFDC4846C4
:1001800031462A464346BDE8F09F202A04DB203A48
:1001900000FA02F1002070479140C2F1200320FADA
:1001A00003F3194390407047202A04DB203A21FAD8
:1001B00002F00021704721FA02F3D040C2F1200280
:1001C0009140084319467047064C074D06E0E06829
:1001D00040F0010394E8070098471034AC42F6D38E
:1001E000FFF778FF580200007802000047F26F0026
:1001F00047F2611101FB00F21346024B1A6000BF87
:1002000000BF7047040000100FB4084B10B504A9DC
:1002100002AA039800F028FB044602A9002000F07F
:1002200016F8204610BC5DF814FB00004F020000D9
:1002300002E008C8121F08C1002AFAD170477047AF
:10024000002001E001C1121F002AFBD170470A689B
:10025000531C0B6010707047280B0000000000104A
:1002600024000000300200004C0B000024000010AD
:100270000C0200004002000000000000000000002E
:10028000000000000000000000000000000000006E
:10029000000000000000000000000000000000005E
:1002A000000000000000000000000000000000004E
:1002B000000000000000000000000000000000003E
:1002C000000000000000000000000000000000002E
:1002D000000000000000000000000000000000001E
:1002E000000000000000000000000000000000000E
:1002F000000000000000000000000000FFFFFFFF02
:100300002DE9F04781480068C0F3016003287CD1E3
:100310007F48006810F0030006D0012833D002287F
:100320005FD003282ED100E000BF78480068C0F3FA
:10033000074000F101044FF002017648D0F8880030
:10034000C0F30E0000F10100A1FB0001724B4FF061
:10035000000CA0FB037901FB039100FB0C1122466A
:1003600063463846FFF7E0FE05466C480068C0B2B9
:1003700000F1010422464FF000032846FFF7D4FEA7
:10038000674908605DE061480068C0F3074000F11C
:1003900001044FF002015F48D0F88800C0F30E005E
:1003A00000F10100A1FB00105E4A4FF0000CA1FB20
:1003B000027900FB029001FB0C012246634638469D
:1003C000FFF7B2FE054655480068C0B200F10104CF
:1003D00022464FF000032846FFF7A6FE504908606A
:1003E0002FE04A480068C0F3074000F101044FF0D5
:1003F00002014848D0F88800C0F30E0000F1010067
:10040000A1FB00124FF4004000E01BE04FF000039E
:10041000A1FB007902FB009001FB03012246384654
:10042000FFF782FE05463D480068C0B200F10104B6
:1004300022464FF000032846FFF776FE3849086051
:1004400000BF2FE03248006810F0030006D00128FA
:1004500010D0022819D0032823D100E000BF2F4874
:100460000068C0B200F101002B49B1FBF0F02C494B
:10047000086016E029480068C0B200F1010029496F
:10048000B1FBF0F0264908600BE024480068C0B2D8
:1004900000F101004FF40041B1FBF0F02049086089
:1004A00000BF00BFBDE8F08720201F490860194841
:1004B000D0F8A00110F0200F05D000BF1A48006846
:1004C00010F0400FFAD00320144908601748114972
:1004D000C1F8A8011648174908604FF001000C49FF
:1004E00008604FF00400A1F10401086012481349AC
:1004F00008604FF480700749C1F8C80108460068D9
:1005000020F4704040F480400860704788C00F407D
:100510000CC10F4000C00F4000093D0004C10F4056
:1005200000000010001BB700A0C10F4055515155ED
:1005300055545554ACC10F40DE872804C4C00F4049
:100540000146302905DB392903DCA1F13002D0B2A4
:1005500002E0A1F13702D0B270470146092903DC5D
:1005600001F13002D0B202E001F13702D0B270479F
:1005700030B5014601220020002309E00A24B1FB26
:10058000F4F504FB1513B1FBF4F103FB02001201B7
:100590000029F3D130BD10B501460122002000230F
:1005A00007E001F00F03090903FB020002EB8204DC
:1005B00062000029F5D110BD002100E0491C8142F4
:1005C000FCD370474FF470709E49C8651020C86511
:1005D0002020C865704700B5FFF7F4FF9A4800680F
:1005E000984948651020C865202088651920FFF7C4
:1005F000E3FF20209349C86500BD00B5934800780B
:1006000000F0F0009049086008460068800008602B
:10061000FFF7E1FF8D48007800F00F008A4908607D
:100620000846006880010860FFF7D5FF4FF47A7034
:10063000FFF7C2FF00BD00B5854800698549084045
:10064000834908617F48006C40F470707D490864FC
:100650000846006C40F0100008640846006C40F04A
:1006600020000864FFF7AEFF4FF44860FFF7A4FFD7
:10067000C02075490860FFF7AEFF47F23050FFF722
:100680009BFFC02070490860FFF7A5FF47F230507C
:10069000FFF792FFC0206C490860FFF79CFF47F20C
:1006A0003050FFF789FF802067490860FFF793FF0C
:1006B00047F23050FFF780FF282064490860FFF7B9
:1006C0009CFF47F23050FFF777FF0C205F4908602E
:1006D000FFF793FF4FF44870FFF76EFF06205B496A
:1006E0000860FFF78AFF4FF44870FFF765FF0120AD
:1006F00056490860FFF781FF42F21070FFF75CFF78
:10070000802052490860FFF778FF4FF44870FFF7E8
:1007100053FF00BD00B5FFF755FF4B48006849493E
:10072000486510208865202088651920FFF744FF60
:1007300020204449C86500BD00B54448007800F059
:10074000F000414908600846006880000860FFF733
:10075000E1FF3E48007800F00F003B490860084682
:10076000006880010860FFF7D5FF4FF47A70FFF74B
:1007700023FF00BD00B5012034490860FFF73DFFAD
:1007800042F21070FFF718FF00BD10B504460023B9
:100790000CE0E05C2D490860FFF7CEFF5B1C102BDE
:1007A00004D1C02029490860FFF727FFE05C00283A
:1007B000EFD110BD00B50020274908700BE0264896
:1007C00001780078401C244A10702448405C1F497E
:1007D0000860FFF7B1FF21481F490978405C0028F5
:1007E000EDD100BD00B500201B4908700BE01A4890
:1007F00001780078401C184A10701948405C134971
:100800000860FFF799FF164813490978405C0028F3
:10081000EDD100BD10B50446FFF70DFF80200B4958
:100820000860FFF7EAFEFFF7DDFFC4200749086014
:1008300022460CA10948FFF7E7FCFFF7DEFEFFF7B1
:10084000B9FF10BD00C00920100000100C000010FE
:1008500000C00240FF00F0FF230000102400001041
:1008600014000010256C78002DE9FF4F8DB09B46D9
:100870000F460446002638E1252801D00F9959E09B
:100880000025641C9D49A84601222378203B02FADA
:1008900003F0084202D00543641CF6E720782E28B6
:1008A00017D114F8010F45F004052A280ED06FF077
:1008B0002F022078A0F1300109290AD808EB88011D
:1008C00002EB410100EB0108641CF2E757F8048BCE
:1008D000641C20786C280DD004DC4C2812D06A28C7
:1008E00011D104E074280DD07A280CD10AE045F427
:1008F000001507E0617845F48015814202D1641C3F
:1009000005F58015641C2278692A46D008DC002A87
:1009100070D0582A69D0632A11D0642A08D13CE0EB
:10092000702A69D0732A14D0752A5CD0782A5CD0DA
:100930000F9910465A46904706F10106D4E017F881
:10094000040B8DF8000000208DF80100E94601201D
:1009500003E057F8049B4FF0FF3069074FF00005A4
:1009600001D40AE06D1C45450DDA8542FADB19F821
:1009700005100029F6D106E06D1C8542FCDB19F854
:1009800005100029F8D12E4404E019F8010B5A464D
:100990000F9990476D1EF8D2A6E00A200021CDE9FC
:1009A0000801C5F3025002280BD001CFC11700295E
:1009B0000EDA4FF0000CD0EB0C006CEB01012D2394
:1009C00009E007F1070727F00707F7E80201EEE75C
:1009D0002B0504D52B238DF82830012330E0EB07BD
:1009E0002ED02023F7E70A2000E010200021CDE9D7
:1009F000080109E07DE0FFE71020002145F0040533
:100A0000CDE908014FF00808C5F3025002281BD0B9
:100A100001CF00214FF0000A2B0712D5702A19D000
:100A2000DDE908C38CF0100C5CEA030C09D150EA34
:100A3000010306D030238DF828308DF829200223B9
:100A40009A46582A10D00AE0FF1D27F00707F7E85A
:100A50000201DFE740228DF828204FF0010A28A28A
:100A60000DF120090B9209E02AA2F9E7DDE908233C
:100A7000FFF75AFB0B9B9B5C09F8013D50EA010212
:100A8000F4D1ADEB090000F120000890680701D413
:100A90004FF001080899884502DDA8EB010000E04D
:100AA00000208046002506E00AA85A46405D0F99BE
:100AB0009047761C6D1C5545F6DB04E030205A4605
:100AC0000F999047761CB8F10001A8F10108F5DCF8
:100AD00005E019F8010B5A460F999047761C0899C2
:100AE000481E08900029F4DC641C207800287FF45C
:100AF000C3AE11B03046BDE8F08F000009280100F8
:100B00003031323334353637383961626364656683
:100B10000000000030313233343536373839414245
:100B20004344454600000000C0C62D000000000000
:100B300000000000000000000000000054574F209B
:0C0B4000313620424954204D554C3D00F8
:04000005000000CD2A
:00000001FF
